{
  "_format": "hh-sol-artifact-1",
  "contractName": "TwitterContract",
  "sourceName": "contracts/twitterFactory.sol",
  "abi": [
    {
      "anonymous": false,
      "inputs": [
        {
          "indexed": false,
          "internalType": "address",
          "name": "recipient",
          "type": "address"
        },
        {
          "indexed": false,
          "internalType": "uint256",
          "name": "tweetId",
          "type": "uint256"
        }
      ],
      "name": "AddTweet",
      "type": "event"
    },
    {
      "anonymous": false,
      "inputs": [
        {
          "indexed": false,
          "internalType": "uint256",
          "name": "tweetId",
          "type": "uint256"
        }
      ],
      "name": "DeleteTweet",
      "type": "event"
    },
    {
      "inputs": [
        {
          "internalType": "string",
          "name": "text",
          "type": "string"
        }
      ],
      "name": "addTweet",
      "outputs": [],
      "stateMutability": "nonpayable",
      "type": "function"
    },
    {
      "inputs": [
        {
          "internalType": "uint256",
          "name": "tweetId",
          "type": "uint256"
        }
      ],
      "name": "deleteTweet",
      "outputs": [],
      "stateMutability": "nonpayable",
      "type": "function"
    },
    {
      "inputs": [],
      "name": "getAllTweets",
      "outputs": [
        {
          "components": [
            {
              "internalType": "uint256",
              "name": "id",
              "type": "uint256"
            },
            {
              "internalType": "address",
              "name": "userName",
              "type": "address"
            },
            {
              "internalType": "bool",
              "name": "isDeleted",
              "type": "bool"
            },
            {
              "internalType": "string",
              "name": "text",
              "type": "string"
            }
          ],
          "internalType": "struct TwitterContract.Tweet[]",
          "name": "",
          "type": "tuple[]"
        }
      ],
      "stateMutability": "view",
      "type": "function"
    },
    {
      "inputs": [],
      "name": "getMyTweets",
      "outputs": [
        {
          "components": [
            {
              "internalType": "uint256",
              "name": "id",
              "type": "uint256"
            },
            {
              "internalType": "address",
              "name": "userName",
              "type": "address"
            },
            {
              "internalType": "bool",
              "name": "isDeleted",
              "type": "bool"
            },
            {
              "internalType": "string",
              "name": "text",
              "type": "string"
            }
          ],
          "internalType": "struct TwitterContract.Tweet[]",
          "name": "",
          "type": "tuple[]"
        }
      ],
      "stateMutability": "view",
      "type": "function"
    },
    {
      "inputs": [
        {
          "internalType": "uint256",
          "name": "tweetId",
          "type": "uint256"
        },
        {
          "internalType": "string",
          "name": "tweetContent",
          "type": "string"
        }
      ],
      "name": "updateTweet",
      "outputs": [],
      "stateMutability": "nonpayable",
      "type": "function"
    }
  ],
  "bytecode": "0x608060405234801561001057600080fd5b506114a0806100206000396000f3fe608060405234801561001057600080fd5b50600436106100575760003560e01c8063532561351461005c5780635775912a1461007a57806359ee12bc146100965780637c0aa77a146100b2578063aefedbc2146100ce575b600080fd5b6100646100ec565b6040516100719190610e1b565b60405180910390f35b610094600480360381019061008f9190610e7d565b6103c6565b005b6100b060048036038101906100ab9190610fdf565b6104a9565b005b6100cc60048036038101906100c79190611028565b61062f565b005b6100d6610865565b6040516100e39190610e1b565b60405180910390f35b60606000808054905067ffffffffffffffff81111561010e5761010d610eb4565b5b60405190808252806020026020018201604052801561014757816020015b610134610bb1565b81526020019060019003908161012c5790505b5090506000805b60008054905081101561030c576000818154811061016f5761016e611084565b5b906000526020600020906003020160010160149054906101000a900460ff166102f957600081815481106101a6576101a5611084565b5b9060005260206000209060030201604051806080016040529081600082015481526020016001820160009054906101000a900473ffffffffffffffffffffffffffffffffffffffff1673ffffffffffffffffffffffffffffffffffffffff1673ffffffffffffffffffffffffffffffffffffffff1681526020016001820160149054906101000a900460ff1615151515815260200160028201805461024a906110e2565b80601f0160208091040260200160405190810160405280929190818152602001828054610276906110e2565b80156102c35780601f10610298576101008083540402835291602001916102c3565b820191906000526020600020905b8154815290600101906020018083116102a657829003601f168201915b5050505050815250508383815181106102df576102de611084565b5b602002602001018190525081806102f590611142565b9250505b808061030490611142565b91505061014e565b5060008167ffffffffffffffff81111561032957610328610eb4565b5b60405190808252806020026020018201604052801561036257816020015b61034f610bb1565b8152602001906001900390816103475790505b50905060005b828110156103bc5783818151811061038357610382611084565b5b602002602001015182828151811061039e5761039d611084565b5b602002602001018190525080806103b490611142565b915050610368565b5080935050505090565b3373ffffffffffffffffffffffffffffffffffffffff166001600083815260200190815260200160002060009054906101000a900473ffffffffffffffffffffffffffffffffffffffff1673ffffffffffffffffffffffffffffffffffffffff161461043157600080fd5b60016000828154811061044757610446611084565b5b906000526020600020906003020160010160146101000a81548160ff0219169083151502179055507f9c0cce8d563144cb9d17b3b2fae510e37811e7065b35355f0c438d8cdcdcbd928160405161049e9190611199565b60405180910390a150565b600080805490509050600060405180608001604052808381526020013373ffffffffffffffffffffffffffffffffffffffff1681526020016000151581526020018481525090806001815401808255809150506001900390600052602060002090600302016000909190919091506000820151816000015560208201518160010160006101000a81548173ffffffffffffffffffffffffffffffffffffffff021916908373ffffffffffffffffffffffffffffffffffffffff16021790555060408201518160010160146101000a81548160ff021916908315150217905550606082015181600201908161059d9190611360565b505050336001600083815260200190815260200160002060006101000a81548173ffffffffffffffffffffffffffffffffffffffff021916908373ffffffffffffffffffffffffffffffffffffffff1602179055507f8b2db9b424f26463510ef5b02c16f2465836b52081b51d2112ec76102053bdea3382604051610623929190611441565b60405180910390a15050565b3373ffffffffffffffffffffffffffffffffffffffff166001600084815260200190815260200160002060009054906101000a900473ffffffffffffffffffffffffffffffffffffffff1673ffffffffffffffffffffffffffffffffffffffff161480156106d3575060001515600083815481106106b0576106af611084565b5b906000526020600020906003020160010160149054906101000a900460ff161515145b15610861576000808054905090506001600084815481106106f7576106f6611084565b5b906000526020600020906003020160010160146101000a81548160ff021916908315150217905550600060405180608001604052808381526020013373ffffffffffffffffffffffffffffffffffffffff1681526020016000151581526020018481525090806001815401808255809150506001900390600052602060002090600302016000909190919091506000820151816000015560208201518160010160006101000a81548173ffffffffffffffffffffffffffffffffffffffff021916908373ffffffffffffffffffffffffffffffffffffffff16021790555060408201518160010160146101000a81548160ff021916908315150217905550606082015181600201908161080a9190611360565b505050336001600083815260200190815260200160002060006101000a81548173ffffffffffffffffffffffffffffffffffffffff021916908373ffffffffffffffffffffffffffffffffffffffff160217905550505b5050565b60606000808054905067ffffffffffffffff81111561088757610886610eb4565b5b6040519080825280602002602001820160405280156108c057816020015b6108ad610bb1565b8152602001906001900390816108a55790505b5090506000805b600080549050811015610af7573373ffffffffffffffffffffffffffffffffffffffff166001600083815260200190815260200160002060009054906101000a900473ffffffffffffffffffffffffffffffffffffffff1673ffffffffffffffffffffffffffffffffffffffff161480156109785750600015156000828154811061095557610954611084565b5b906000526020600020906003020160010160149054906101000a900460ff161515145b15610ae4576000818154811061099157610990611084565b5b9060005260206000209060030201604051806080016040529081600082015481526020016001820160009054906101000a900473ffffffffffffffffffffffffffffffffffffffff1673ffffffffffffffffffffffffffffffffffffffff1673ffffffffffffffffffffffffffffffffffffffff1681526020016001820160149054906101000a900460ff16151515158152602001600282018054610a35906110e2565b80601f0160208091040260200160405190810160405280929190818152602001828054610a61906110e2565b8015610aae5780601f10610a8357610100808354040283529160200191610aae565b820191906000526020600020905b815481529060010190602001808311610a9157829003601f168201915b505050505081525050838381518110610aca57610ac9611084565b5b60200260200101819052508180610ae090611142565b9250505b8080610aef90611142565b9150506108c7565b5060008167ffffffffffffffff811115610b1457610b13610eb4565b5b604051908082528060200260200182016040528015610b4d57816020015b610b3a610bb1565b815260200190600190039081610b325790505b50905060005b82811015610ba757838181518110610b6e57610b6d611084565b5b6020026020010151828281518110610b8957610b88611084565b5b60200260200101819052508080610b9f90611142565b915050610b53565b5080935050505090565b604051806080016040528060008152602001600073ffffffffffffffffffffffffffffffffffffffff168152602001600015158152602001606081525090565b600081519050919050565b600082825260208201905092915050565b6000819050602082019050919050565b6000819050919050565b610c3081610c1d565b82525050565b600073ffffffffffffffffffffffffffffffffffffffff82169050919050565b6000610c6182610c36565b9050919050565b610c7181610c56565b82525050565b60008115159050919050565b610c8c81610c77565b82525050565b600081519050919050565b600082825260208201905092915050565b60005b83811015610ccc578082015181840152602081019050610cb1565b60008484015250505050565b6000601f19601f8301169050919050565b6000610cf482610c92565b610cfe8185610c9d565b9350610d0e818560208601610cae565b610d1781610cd8565b840191505092915050565b6000608083016000830151610d3a6000860182610c27565b506020830151610d4d6020860182610c68565b506040830151610d606040860182610c83565b5060608301518482036060860152610d788282610ce9565b9150508091505092915050565b6000610d918383610d22565b905092915050565b6000602082019050919050565b6000610db182610bf1565b610dbb8185610bfc565b935083602082028501610dcd85610c0d565b8060005b85811015610e095784840389528151610dea8582610d85565b9450610df583610d99565b925060208a01995050600181019050610dd1565b50829750879550505050505092915050565b60006020820190508181036000830152610e358184610da6565b905092915050565b6000604051905090565b600080fd5b600080fd5b610e5a81610c1d565b8114610e6557600080fd5b50565b600081359050610e7781610e51565b92915050565b600060208284031215610e9357610e92610e47565b5b6000610ea184828501610e68565b91505092915050565b600080fd5b600080fd5b7f4e487b7100000000000000000000000000000000000000000000000000000000600052604160045260246000fd5b610eec82610cd8565b810181811067ffffffffffffffff82111715610f0b57610f0a610eb4565b5b80604052505050565b6000610f1e610e3d565b9050610f2a8282610ee3565b919050565b600067ffffffffffffffff821115610f4a57610f49610eb4565b5b610f5382610cd8565b9050602081019050919050565b82818337600083830152505050565b6000610f82610f7d84610f2f565b610f14565b905082815260208101848484011115610f9e57610f9d610eaf565b5b610fa9848285610f60565b509392505050565b600082601f830112610fc657610fc5610eaa565b5b8135610fd6848260208601610f6f565b91505092915050565b600060208284031215610ff557610ff4610e47565b5b600082013567ffffffffffffffff81111561101357611012610e4c565b5b61101f84828501610fb1565b91505092915050565b6000806040838503121561103f5761103e610e47565b5b600061104d85828601610e68565b925050602083013567ffffffffffffffff81111561106e5761106d610e4c565b5b61107a85828601610fb1565b9150509250929050565b7f4e487b7100000000000000000000000000000000000000000000000000000000600052603260045260246000fd5b7f4e487b7100000000000000000000000000000000000000000000000000000000600052602260045260246000fd5b600060028204905060018216806110fa57607f821691505b60208210810361110d5761110c6110b3565b5b50919050565b7f4e487b7100000000000000000000000000000000000000000000000000000000600052601160045260246000fd5b600061114d82610c1d565b91507fffffffffffffffffffffffffffffffffffffffffffffffffffffffffffffffff820361117f5761117e611113565b5b600182019050919050565b61119381610c1d565b82525050565b60006020820190506111ae600083018461118a565b92915050565b60008190508160005260206000209050919050565b60006020601f8301049050919050565b600082821b905092915050565b6000600883026112167fffffffffffffffffffffffffffffffffffffffffffffffffffffffffffffffff826111d9565b61122086836111d9565b95508019841693508086168417925050509392505050565b6000819050919050565b600061125d61125861125384610c1d565b611238565b610c1d565b9050919050565b6000819050919050565b61127783611242565b61128b61128382611264565b8484546111e6565b825550505050565b600090565b6112a0611293565b6112ab81848461126e565b505050565b5b818110156112cf576112c4600082611298565b6001810190506112b1565b5050565b601f821115611314576112e5816111b4565b6112ee846111c9565b810160208510156112fd578190505b611311611309856111c9565b8301826112b0565b50505b505050565b600082821c905092915050565b600061133760001984600802611319565b1980831691505092915050565b60006113508383611326565b9150826002028217905092915050565b61136982610c92565b67ffffffffffffffff81111561138257611381610eb4565b5b61138c82546110e2565b6113978282856112d3565b600060209050601f8311600181146113ca57600084156113b8578287015190505b6113c28582611344565b86555061142a565b601f1984166113d8866111b4565b60005b82811015611400578489015182556001820191506020850194506020810190506113db565b8683101561141d5784890151611419601f891682611326565b8355505b6001600288020188555050505b505050505050565b61143b81610c56565b82525050565b60006040820190506114566000830185611432565b611463602083018461118a565b939250505056fea26469706673582212206ae5bb4eb7fffec39006c6709d6ab071c8b5f44e70b8563decc4ba59e7b50ef164736f6c63430008110033",
  "linkReferences": {},
  "deployedLinkReferences": {}
}